:020000040800F2
:1000000058110020C1010008C7050008C3040008FA
:10001000C3050008B90200086910000800000000CC
:10002000000000000000000000000000110D0008AA
:100030000703000800000000470B0008590E0008E5
:10004000DB010008DB010008DB010008DB01000820
:10005000DB010008DB010008DB010008DB01000810
:10006000DB010008DB010008DB010008DB01000800
:10007000DB010008DB010008DB010008DB010008F0
:10008000DB010008DB010008DB010008DB010008E0
:10009000DB010008DB010008DB010008DB010008D0
:1000A000DB010008DB010008DB010008DB010008C0
:1000B000BD0E0008DB010008DB010008DB010008C1
:1000C000DB010008DB010008DB010008DB010008A0
:1000D000DB010008DB010008DB010008DB01000890
:1000E000DB010008DB010008DB01000800F002F87A
:1000F00000F03CF80AA090E8000C82448344AAF186
:100100000107DA4501D100F031F8AFF2090EBAE883
:100110000F0013F0010F18BFFB1A43F0010318473B
:10012000141B0000341B0000103A24BF78C878C1AB
:10013000FAD8520724BF30C830C144BF04680C60ED
:10014000704700000023002400250026103A28BF35
:1001500078C1FBD8520728BF30C148BF0B60704739
:100160001FB500F062F81FBD10B510BD00F06EF8AD
:100170001146FFF7F5FF00F079FF00F08CF803B4AB
:10018000FFF7F2FF03BC00F091F800000B49D1F833
:1001900000C04A685CF8043B1068184442F8040B3D
:1001A0008C4528BFA1F1DC0C8A4228BFA1F1DC02FA
:1001B000C1F800C04A6020F000407047EC0A0020FF
:1001C0000948804709480047FEE7FEE7FEE7FEE7EB
:1001D000FEE7FEE7FEE7FEE7FEE7FEE70448054927
:1001E000054A064B704700005D0E0008ED00000850
:1001F000580B002058110020580D0020580D0020E9
:100200000B4910B5A1F17C020A4CC2E93712372123
:1002100006E000EB104342F82130074B00FB03409F
:100220000B1EA1F10101F4DC10BD0120E8E7000084
:100230008C0A0020E119D666CD0D01007047704789
:100240007047000000487047F40A00207546FFF729
:10025000F9FFAE4605006946534620F00700854683
:1002600018B020B5FFF7BAFFBDE820404FF00006F8
:100270004FF000074FF000084FF0000B21F007018E
:10028000AC46ACE8C009ACE8C009ACE8C009ACE8D1
:10029000C0098D46704710B50446AFF30080204674
:1002A000BDE81040FFF76BBF704700000149182000
:1002B000ABBEFEE72600020000BFFEE711B3022935
:1002C00006D190F80024022A02D0032280F80024EC
:1002D000032906D190F80024012A02D0002280F8D8
:1002E0000024042906D190F80024032A02D0022217
:1002F00080F80024012905D190F8002412B10122D0
:1003000080F80024704770472DE9F04104460D46FF
:1003100000260DE0002708E007EB8502D1B206EBCE
:100320008402D0B200F0FAF97F1C042FF4DB761CB3
:10033000042EEFDBBDE8F08138B505460C46607849
:1003400005EB00102178405C012820D194F80104CD
:10035000401C84F8010494F80104801E04EB400062
:100360000088009094F80104401E04EB4000BDF8A2
:10037000001001800020617805EB0111227888547B
:1003800085F800022146284600F0FEFB00BF38BD7C
:100390002DE9F0410246002500260020002300241C
:1003A000002791F803C00CF00F0591F803C00CF082
:1003B000100CBCF1000F03D091F802C04CEA050507
:1003C00091F800C0BCF1000F31D0146800202BE080
:1003D0004FF0010C0CFA00F3B1F800C00CEA030670
:1003E0009E4220D183004FF00F0C0CFA03F7BC4360
:1003F00005FA03FC4CEA040491F803C0BCF1280F91
:1004000006D14FF0010C0CFA00FCC2F814C00AE04F
:1004100091F803C0BCF1480F05D14FF0010C0CFA64
:1004200000FCC2F810C0401C0828D1D31460B1F8F9
:1004300000C0BCF1FF0F34DD546800202EE000F155
:10044000080C4FF0010808FA0CF3B1F800C00CEAF0
:1004500003069E4221D183004FF00F0C0CFA03F7E4
:10046000BC4305FA03FC4CEA040491F803C0BCF158
:10047000280F05D100F1080C08FA0CF8C2F8148016
:1004800091F803C0BCF1480F07D100F1080C4FF000
:10049000010808FA0CF8C2F81080401C0828CED3D6
:1004A0005460BDE8F0810246002093680B400BB118
:1004B000012000E0002070470AB1016100E04161C5
:1004C000704700BFFEE70000024908780021014A9A
:1004D000117070470400002010B502210F48FFF78B
:1004E000E2FF08B9012010BD4FF400610B48FFF78F
:1004F000DAFF08B90220F6E74FF480610748FFF7FA
:10050000D2FF08B90320EEE701210448FFF7CBFF33
:1005100008B90420E7E70020E5E70000000C0140EF
:1005200008B50121082000F01FFB48208DF80300CA
:1005300040F60340ADF8000003208DF80200694644
:100540000148FFF725FF08BD000C014010B50F481A
:100550000078401C0D49087008460078142813DB09
:10056000002008700A4800780A490870FFF7B4FFB5
:10057000074908700846007830B90648007818B175
:10058000044800780449087010BD000005000020F0
:1005900006000020070000200400002010B5002104
:1005A00009E0002204E0002300EB0114A354521CD4
:1005B000102AF8DB491C2029F3DB002180F8001207
:1005C00010BD00BFFEE7704770B5002100230F2269
:1005D000C47804B3154C246804F4E064C4F5E06402
:1005E000210AC1F10403CA40447804FA03F1847873
:1005F0001440214309010E4C0678A155047804F0FB
:100600001F050124AC4005786D11AD0005F1E02512
:10061000C5F8004109E0047804F01F050124AC404E
:10062000044D0678761145F8264070BD0CED00E0CB
:1006300000E400E080E100E002490143024A116069
:10064000704700000000FA050CED00E000200CE00F
:10065000002106E00022064B03EBC0135A544A1C4B
:10066000D1B28029F6DB421CD0B20828F0DB7047FB
:100670000D0600202DE9F04304460D4616461F46A0
:100680007F2C01DDBDE8F0833F2D00DDFAE7A119E5
:10069000802902DDC4F18001CEB2E919402902DDD2
:1006A000C5F14001CFB2284630E0234629E04FEAA9
:1006B000E07C00EB5C7C4FEAEC0CDFF85C8008EB44
:1006C000CC1C1CF803C002464FEAE07800EB5878D7
:1006D0004FEAE808A0EBC8094FF0010808FA09F84A
:1006E0002CEA080C01464FEAE07800EB58784FEA14
:1006F000E808DFF8249009EBC81808F803C0591C73
:10070000CBB2A1199942D2DC411CC8B2E91981428D
:10071000CBDC00BFB6E700000D06002070B5034635
:100720007F2B00DD70BD3F2900DDFBE7CC1701EB1F
:100730005474E4100C4D05EBC414E45C0A46CD1768
:1007400001EB5575ED10A1EBC5060125B5402C4315
:100750000846CD1701EB5575ED10034E06EBC51598
:10076000EC5400BFDEE700000D06002038B5002481
:1007700006E0002500E06D1CB5F57A7FFBD3641C14
:10078000B4F57A7FF5D30121082000F0EDF91420AB
:100790008DF8030003208DF802004FF48050ADF86F
:1007A000000069460848FFF7F3FD4FF40050ADF82C
:1007B000000069460448FFF7EBFD012000F084F9D2
:1007C000012000F08DF938BD000C014070B50546E0
:1007D000002411E080212141294009B1012100E0DC
:1007E0000021084600F07CF9012000F06DF900209E
:1007F00000F06AF9601CC4B2082CEBDB012000F0A9
:1008000063F9002000F060F970BD10B5012000F020
:1008100067F9012000F058F9002000F061F900208C
:1008200000F052F910BD10B5002000F059F9012078
:1008300000F04AF9012000F053F910BD10B5FFF7A0
:1008400095FFAE2000F058F9D52000F055F9802032
:1008500000F052F9A82000F04FF93F2000F04CF9C9
:10086000D32000F049F9002000F046F9402000F0C4
:1008700043F9A12000F040F9C82000F03DF9DA204A
:1008800000F03AF9122000F037F9812000F034F935
:10089000CF2000F031F9D92000F02EF9F12000F03E
:1008A0002BF9DB2000F028F9302000F025F9A420F6
:1008B00000F022F9A62000F01FF98D2000F01CF9AD
:1008C000142000F019F9AF2000F016F910BD70B532
:1008D00005460C4645F0B00000F00EF9102141EA43
:1008E000141000F009F904F00F0000F005F970BDD4
:1008F000F8B506460F4614461D46082D0CD1A4F146
:1009000020000E4901EB0010102308223946009008
:10091000304600F017F80FE0062D0DD1A4F12000AD
:1009200000EB4000064901EB40000823062239464F
:100930000090304600F006F8F8BD0000E010000816
:10094000D01600082DE9F04707460C469046994618
:10095000DDF820A07F2F01DDBDE8F0873F2C00DD12
:10096000FAE74B46424621463846FFF783FE00250C
:1009700070E0002669E0B8197F2800DD67E0E11724
:1009800004EB517105EBE101072900DDE4E72046A6
:10099000E21704EB527205EBE202344B03EBC21296
:1009A000BB19D25C2146E31704EB5373DB10A4EBB5
:1009B000C30305FB086C1AF80CC00CFA03FC42EAEE
:1009C0000C02E31704EB537305EBE303DFF89CC061
:1009D0000CEBC31307EB060C03F80C20E11704EB38
:1009E000517105EBE101491C072900DD2BE0204690
:1009F000E21704EB527205EBE202521C1B4B03EBB5
:100A0000C212BB19D25C2146E31704EB5373DB100F
:100A1000A4EBC303C3F1080305FB086C1AF80CC070
:100A20004CFA03FC42EA0C02E31704EB537305EBA8
:100A3000E3035B1CDFF834C00CEBC31307EB060CBD
:100A400003F80C2000BF701CC6B2464593DB00BF04
:100A5000681CC5B2A9F10100C11700EB5171012258
:100A600002EBE101A94284DC00BF75E70D0600201E
:100A70002DE9F0410646884615461F46002409E048
:100A80002A5D04FB0761C8B23B464146FFF730FFD1
:100A9000601CC4B2285D0028F2D1BDE8F0810000DE
:100AA00010B500240BE000212046FFF710FF054998
:100AB00001EBC410802100F02FF8601CC4B2082C98
:100AC000F1DB10BD0D06002010B5044622464FF4A0
:100AD00080510248FFF7F0FC10BD0000000C0140FF
:100AE00010B5044622464FF400510248FFF7E4FCDB
:100AF00010BD0000000C014010B50446FFF785FE54
:100B00007820FFF763FE0020FFF760FE2046FFF726
:100B10005DFEFFF788FE10BD70B505460E46FFF777
:100B200074FE7820FFF752FE4020FFF74FFE0024AE
:100B300004E0285DFFF74AFE601CC4B2B442F8DB53
:100B4000FFF771FE70BD704729B1064AD2690243B2
:100B5000044BDA6104E0034AD2698243014BDA6153
:100B6000704700000010024029B1064A9269024312
:100B7000044B9A6104E0034A92698243014B9A61F3
:100B80007047000000100240F8B506460C4696F883
:100B90000002002857D154E00025FFF7F7FA074676
:100BA000C01707EBD0604011A7EB4010C0B28DF822
:100BB0000000FFF7EBFA0746C01707EB10700011B3
:100BC000A7EB0010C0B28DF8010000BF1CE09DF83B
:100BD000000014F81510884206D19DF8010004EBBE
:100BE0004501497888420DD09DF80000202809D0A1
:100BF0009DF80100102805D09DF8000010B19DF867
:100C0000010000B904E06D1C94F80104A842DEDC88
:100C100000BF94F80104A84212DC01209DF80110E5
:100C200006EB01119DF80020885486F800029DF81B
:100C300001109DF80000FFF767FBFFF731FF01E0AF
:100C400000BFA9E700BFF8BD10B5044694F8012421
:100C5000521E04EB420252789206110E94F80124BF
:100C6000521E14F812209206100E04231A46FFF7A3
:100C700001FD207894F80014244A12F83110084439
:100C80002070607894F8001402EBC10109790844DF
:100C900060702078802808DA6078102805DA2078DB
:100CA000002802DD6078002802DC012084F80304BB
:100CB00094F80104042814DB01200EE0217814F8D4
:100CC0001020914208D1617804EB400252789142A1
:100CD00002D1012184F80314401C94F801148142CC
:100CE000ECDC94F80114481E07E004EB4002411EBE
:100CF00004EB410109881180401E0028F5DC617871
:100D00002078FFF701FBFFF7CBFE10BD141C000895
:100D1000704710B500F002F810BD00000CB50020BF
:100D2000019000903348006840F4803031490860F9
:100D300000BF3048006800F4003000900198401C6B
:100D40000190009818B90198B0F5A06FF1D1294829
:100D5000006800F4003010B10120009001E0002094
:100D600000900098012843D12348006840F010000B
:100D7000214908600846006820F003000860084622
:100D8000006840F0020008601A484068194948604D
:100D90000846406848600846406840F48060486003
:100DA0000846406820F47C1048600846406840F4DB
:100DB000E81048600846006840F08070086000BF96
:100DC0000C48006800F000700028F9D0094840681D
:100DD00020F00300074948600846406840F00200E0
:100DE000486000BF0348406800F00C000828F9D1B3
:100DF0000CBD00000010024000200240032180F8DA
:100E00000114022180F800141021017008214170A2
:100E10000F2181700822C2700E2101714271C82118
:100E200080F80214002180F80314704710B50446BE
:100E300008480068401C0749086094F802040968E3
:100E4000884205DC2046FFF7FFFE002001490860CC
:100E500010BD0000000000207047000010B51348CE
:100E6000006840F0010011490860084640681049D8
:100E700008400E494860084600680E4908400B4982
:100E800008600846006820F4802008600846406832
:100E900020F4FE0048604FF41F008860FFF739FF20
:100EA0004FF000600449086010BD000000100240CF
:100EB0000000FFF8FFFFF6FE08ED00E010B501218D
:100EC000880700F021F8012808D10548FFF7AEFF98
:100ED000FFF73CFB0121880700F007F810BD000078
:100EE00008000020CA4302827047CA43028270474A
:100EF00021B1028842F00102028004E002884FF62C
:100F0000FE731A400280704730B50246002000236D
:100F10000024158A05EA0103958905EA010413B145
:100F20000CB1012000E0002030BD1AB183890B43D1
:100F3000838102E083898B438381704701894FF667
:100F4000F872114001817047002202881D4B9842BF
:100F50000ED01D4B98420BD0B0F1804F08D01B4BE8
:100F6000984205D01A4B984202D01A4B984204D1AD
:100F70004FF68F731A404B881A43174B984207D08D
:100F8000164B984204D04FF6FF431A40CB881A43C1
:100F900002808B8883850B8803850A4B98420BD08F
:100FA000094B984208D00E4B984205D00D4B984201
:100FB00002D00D4B984201D10B7A03860123838224
:100FC00070470000002C0140003401400004004044
:100FD00000080040000C00400010004000140040D9
:100FE0000040014000440140004801401FB501217C
:100FF0000846FFF7A9FD4FF08040FFF79FFF002054
:10100000ADF80A00ADF806000920ADF8080041F679
:101010001F40ADF8040000208DF80C0001A94FF02E
:101020008040FFF791FF01218807FFF75BFF012256
:1010300011469007FFF779FF4FF4A060FFF7FCFA25
:101040001C208DF8000001208DF8030002208DF88F
:10105000010001208DF802006846FFF7B5FA012172
:101060008807FFF745FF1FBD00BFFEE710B5FFF77C
:10107000E5FBFFF7BBFF1548FFF7C0FE1448FFF77D
:101080008DFAFFF74DFA20E00024FFF71DFA044621
:101090000E490F48FFF750F90C490D48FFF774FD52
:1010A00021460A48FFF70AF9084890F8030458B1A6
:1010B000FFF7CCFA082307A218212020FFF7D8FC5D
:1010C000FFF7EEFC002010BD00BFDDE708000020A8
:1010D0000C04002047616D654F76657200000000CA
:1010E0000000000000000000000000000000000000
:1010F000000000F800000000000000333000000095
:1011000000160E00160E0000000000000000000097
:1011100040C07840C0784000043F04043F0404000D
:10112000007088FC08300000001820FF211E00001D
:10113000F008F000E018000000211C031E211E0032
:1011400000F00888700000001E21232419272110B8
:10115000000000160E00000000000000000000006B
:10116000000000E018040200000000071820400002
:1011700000020418E00000000040201807000000F2
:10118000404080F0804040000202010F0102020056
:10119000000000F0000000000101011F010101003A
:1011A000000000000000000000B07000000000001F
:1011B0000000000000000000000101010101010128
:1011C00000000000000000000030300000000000BF
:1011D0000000000080601804006018060100000094
:1011E00000E010080810E000000F102020100F0091
:1011F000001010F8000000000020203F2020000018
:10120000007008080888700000302824222130006F
:1012100000300888884830000018202020110E0077
:101220000000C02010F8000000070424243F240020
:1012300000F80888880808000019212020110E00F5
:1012400000E0108888180000000F112020110E0007
:1012500000380808C83808000000003F00000000FF
:101260000070880808887000001C222121221C00C0
:1012700000E010080810E0000000312222110F00E9
:10128000000000C0C000000000000030300000007E
:10129000000000C0C0000000000080B0700000002E
:1012A0000000804020100800000102040810200007
:1012B0004040404040404000040404040404040052
:1012C00000081020408000000020100804020100E7
:1012D000007048080808F0000000003036010000E7
:1012E000C030C828E810E0000718272423140B009A
:1012F0000000C038E0000000203C23020227382014
:1013000008F8888888700000203F202020110E00F7
:10131000C0300808080838000718202020100800EE
:1013200008F808080810E000203F202020100F00D7
:1013300008F88888E8081000203F202023201800A3
:1013400008F88888E8081000203F2000030000000B
:10135000C03008080838000007182020221E0200AC
:1013600008F808000008F808203F210101213F206B
:10137000000808F8080800000020203F2020000096
:1013800000000808F8080800C08080807F00000086
:1013900008F888C028180800203F200126382000BF
:1013A00008F8080000000000203F20202020300026
:1013B00008F8F800F8F80800203F003F003F200040
:1013C00008F830C00008F808203F200007183F0048
:1013D000E01008080810E0000F10202020100F0077
:1013E00008F808080808F000203F2101010100006A
:1013F000E01008080810E0000F18242438504F00AF
:1014000008F8888888887000203F2000030C30206E
:1014100000708808080838000038202121221C00AC
:10142000180808F8080818000000203F20000000F5
:1014300008F808000008F808001F202020201F00DE
:101440000878880000C83808000007380E0100003E
:10145000F80800F80008F800033C0700073C030008
:10146000081868808068180820302C03032C30206E
:101470000838C800C83808000000203F20000000DD
:1014800010080808C8380800203826212020180035
:10149000000000FE020202000000007F4040400009
:1014A000000C30C000000000000000010638C00041
:1014B00000020202FE000000004040407F000000E9
:1014C00000201008040810200000000000000000A8
:1014D000000000000000000080808080808080800C
:1014E00000020408000000000000000000000000EE
:1014F00000008080808000000019242222223F20EA
:1015000008F8008080000000003F112020110E002C
:101510000000008080800000000E112020201100BB
:10152000000000808088F800000E112020103F206D
:101530000000808080800000001F222222221300F1
:10154000008080F0888888180020203F202000003C
:101550000000808080808000006B949494936000F1
:1015600008F8008080800000203F210000203F20FC
:1015700000809898000000000020203F20200000FC
:10158000000000809898000000C08080807F0000EC
:1015900008F8000080808000203F24022D302000C9
:1015A000000808F8000000000020203F2020000074
:1015B0008080808080808000203F20003F20003F8E
:1015C000008080008080000000203F2100203F201C
:1015D0000000808080800000001F202020201F004D
:1015E000808000808000000080FFA12020110E007C
:1015F0000000008080808000000E112020A0FF806D
:10160000808080008080800020203F212000010019
:10161000000080808080800000332424242419006E
:10162000008080E0808000000000001F202000007B
:101630008080000000808000001F202020103F20BC
:10164000808080000080808000010E30080601004C
:1016500080800080008080800F300C030C300F00F1
:1016600000808000808080000020312E0E3120001C
:10167000808080000080808080818E70180601004C
:1016800000808080808080000021302C222130006A
:1016900000000000807C020200000000003F40408B
:1016A00000000000FF00000000000000FF0000003C
:1016B0000002027C800000000040403F000000006B
:1016C0000080404080000080000000000001010018
:1016D0000000000000000000002F000000000700D4
:1016E000070000147F147F1400242A7F2A1200238D
:1016F00013086462003649552250000000070000BC
:1017000000001C224100000041221C000014083E81
:1017100008140008083E0808000000A06000000847
:10172000080808080000606000000020100804029B
:10173000003E5149453E0000427F40000042615159
:101740004946002141454B31001814127F100027F3
:1017500045454539003C4A494930000171090503B6
:1017600000364949493600064949291E00003636E7
:10177000000000005636000000081422410000144A
:101780001414141400004122140800020151090627
:10179000003E4955592E007C1211127C007F4949A8
:1017A0004936003E41414122007F4141221C007FD9
:1017B00049494941007F09090901003E4149497AE7
:1017C000007F0808087F0000417F41000020404161
:1017D0003F01007F08142241007F40404040007FCD
:1017E000020C027F007F0408107F003E4141413E11
:1017F000007F09090906003E4151215E007F091959
:1018000029460046494949310001017F0101003F55
:101810004040403F001F2040201F003F4038403FD5
:101820000063140814630007087008070061514939
:10183000454300007F4141000002040810200000E1
:1018400041417F000004020102040040404040404A
:10185000000001020400002054545478007F4844E2
:10186000443800384444442000384444487F003819
:101870005454541800087E0901020018A4A4A47C42
:10188000007F080404780000447D4000004080840C
:101890007D00007F102844000000417F4000007C54
:1018A00004180478007C0804047800384444443860
:1018B00000FC242424180018242418FC007C0804AC
:1018C000040800485454542000043F444020003C85
:1018D0004040207C001C2040201C003C4030403C0C
:1018E000004428102844001CA0A0A07C004464549C
:1018F0004C440000087F41000000007F0000000011
:10190000417F0800000804081008EFBC8C000000AC
:1019100000000000000000000000000000000000C7
:101920005838000000000000000000000000E380C4
:101930008200000000000000000000000000000025
:10194000000000001824241800000000000000001F
:101950000000E4BDA000008060F8074020180F08D8
:10196000C80808281800010000FF00100C03408080
:101970007F0001061800E5A5BD001010F01F10F053
:1019800000808282E2928A868000402215081661D9
:10199000000040807F0000000000E4B89600202096
:1019A00020FE2020FF202020FF20202020000000FB
:1019B000007F404047444444474040400000E79592
:1019C0008C00000000FE929292FE929292FE000025
:1019D000000008080484621E010001FE02040408DD
:1019E0000800E593880000FC0404FC2050484443B0
:1019F000444850202000000F04040F00FE424242E1
:101A00004242FE000000E596BD0000FC0404FC001C
:101A1000905234107F1034529000000F04040F8253
:101A2000825A562322524E820200E5A4A7002020AB
:101A30002020202020FF2020202020202000808027
:101A40004020100C0300030C102040808000E5AE05
:101A5000B600102C2424A4A465A624242424A43491
:101A60000C0040494929241452897F040A1110208E
:101A7000200000000000FF01010131090909098966
:101A80007101010101FFFF8080808080809681804C
:101A90008080808080FFFF01818181FD8991A1C1CB
:101AA000FD81818101FFFF808080809F8884828109
:101AB0009F80808080FF00000080F0100808C80828
:101AC0000808C808081830E0000000000000000006
:101AD0000000000000000000000000000000000006
:101AE00000000000000000000000000F78C080B07F
:101AF0006740C080C740701080C17F0000000000B8
:101B000000000000000000000000000000000000D5
:101B100000000000000000000000000000000000C5
:101B200000010101FFFEFE23212121202020301889
:101B30000CA4A6A3A1A0A0A000007CCE06060606C9
:101B4000060C38180C040406068CF800000000008F
:101B5000000000000000FFFFFFC2020202020202BA
:101B600002060C1A32624202020200000001031651
:101B70001C387040C0C06030180C06030000000024
:101B80000000000000F01C060301071DF0800000AB
:101B90000000000000000000000000000000000045
:101BA0000000000000000000000000000000000035
:101BB00000000000701C070100000000000000038E
:101BC0000E1870C0C00000000000000000000000FF
:101BD0000000000000000000000000000000000005
:101BE00000000000000000000000000000000000F5
:101BF00000000000000000000000000000000000E5
:101C000000000000000000000000000000000000D4
:101C10000000000000000000FFFFFFFF00000000C8
:101C200001000000FFFFFFFF0000000001000000B6
:101C300000000000541C0008000000200800000004
:101C4000280100085C1C000808000020501100005A
:0C1C50004401000800000000000000003B
:04000005080000ED02
:00000001FF
